{
  "contractName": "SocialMediaDapp",
  "abi": [
    {
      "inputs": [],
      "stateMutability": "nonpayable",
      "type": "constructor"
    },
    {
      "anonymous": false,
      "inputs": [
        {
          "indexed": false,
          "internalType": "uint256",
          "name": "id",
          "type": "uint256"
        },
        {
          "indexed": false,
          "internalType": "address",
          "name": "author",
          "type": "address"
        },
        {
          "indexed": false,
          "internalType": "uint256",
          "name": "likes",
          "type": "uint256"
        }
      ],
      "name": "PostLiked",
      "type": "event"
    },
    {
      "anonymous": false,
      "inputs": [
        {
          "indexed": false,
          "internalType": "uint256",
          "name": "id",
          "type": "uint256"
        },
        {
          "indexed": false,
          "internalType": "address",
          "name": "author",
          "type": "address"
        },
        {
          "indexed": false,
          "internalType": "uint256",
          "name": "likes",
          "type": "uint256"
        }
      ],
      "name": "PostUnliked",
      "type": "event"
    },
    {
      "anonymous": false,
      "inputs": [
        {
          "indexed": false,
          "internalType": "uint256",
          "name": "id",
          "type": "uint256"
        },
        {
          "indexed": false,
          "internalType": "string",
          "name": "cid",
          "type": "string"
        },
        {
          "indexed": false,
          "internalType": "string",
          "name": "name",
          "type": "string"
        },
        {
          "indexed": false,
          "internalType": "address",
          "name": "author",
          "type": "address"
        }
      ],
      "name": "PostUploaded",
      "type": "event"
    },
    {
      "inputs": [],
      "name": "postCount",
      "outputs": [
        {
          "internalType": "uint256",
          "name": "",
          "type": "uint256"
        }
      ],
      "stateMutability": "view",
      "type": "function",
      "constant": true
    },
    {
      "inputs": [
        {
          "internalType": "uint256",
          "name": "",
          "type": "uint256"
        }
      ],
      "name": "posts",
      "outputs": [
        {
          "internalType": "uint256",
          "name": "id",
          "type": "uint256"
        },
        {
          "internalType": "string",
          "name": "name",
          "type": "string"
        },
        {
          "internalType": "string",
          "name": "cid",
          "type": "string"
        },
        {
          "internalType": "string",
          "name": "discription",
          "type": "string"
        },
        {
          "internalType": "string",
          "name": "date",
          "type": "string"
        },
        {
          "internalType": "address",
          "name": "author",
          "type": "address"
        },
        {
          "internalType": "uint256",
          "name": "likes",
          "type": "uint256"
        }
      ],
      "stateMutability": "view",
      "type": "function",
      "constant": true
    },
    {
      "inputs": [
        {
          "internalType": "string",
          "name": "_name",
          "type": "string"
        },
        {
          "internalType": "string",
          "name": "_cid",
          "type": "string"
        },
        {
          "internalType": "string",
          "name": "_discription",
          "type": "string"
        },
        {
          "internalType": "string",
          "name": "_date",
          "type": "string"
        }
      ],
      "name": "uploadPost",
      "outputs": [],
      "stateMutability": "nonpayable",
      "type": "function"
    },
    {
      "inputs": [
        {
          "internalType": "address",
          "name": "_ownerOf",
          "type": "address"
        }
      ],
      "name": "getAllImageByAddress",
      "outputs": [
        {
          "components": [
            {
              "internalType": "uint256",
              "name": "id",
              "type": "uint256"
            },
            {
              "internalType": "string",
              "name": "name",
              "type": "string"
            },
            {
              "internalType": "string",
              "name": "cid",
              "type": "string"
            },
            {
              "internalType": "string",
              "name": "discription",
              "type": "string"
            },
            {
              "internalType": "string",
              "name": "date",
              "type": "string"
            },
            {
              "internalType": "address",
              "name": "author",
              "type": "address"
            },
            {
              "internalType": "uint256",
              "name": "likes",
              "type": "uint256"
            }
          ],
          "internalType": "struct SocialMediaDapp.Post[]",
          "name": "FilterPost",
          "type": "tuple[]"
        }
      ],
      "stateMutability": "view",
      "type": "function",
      "constant": true
    },
    {
      "inputs": [
        {
          "internalType": "uint256",
          "name": "_id",
          "type": "uint256"
        }
      ],
      "name": "likePost",
      "outputs": [],
      "stateMutability": "nonpayable",
      "type": "function"
    },
    {
      "inputs": [
        {
          "internalType": "uint256",
          "name": "_id",
          "type": "uint256"
        }
      ],
      "name": "dislikePost",
      "outputs": [],
      "stateMutability": "nonpayable",
      "type": "function"
    }
  ],
  "bytecode": "0x608060405234801561001057600080fd5b5060008081905550612001806100276000396000f3fe608060405234801561001057600080fd5b50600436106100625760003560e01c80630b1e7f831461006757806317906c2e1461009d5780634ac8e7fd146100bb578063725009d3146100d7578063732fa7c7146100f35780638978ab831461010f575b600080fd5b610081600480360381019061007c9190611772565b61013f565b6040516100949796959493929190611c2a565b60405180910390f35b6100a56103c1565b6040516100b29190611b85565b60405180910390f35b6100d560048036038101906100d091906116af565b6103c7565b005b6100f160048036038101906100ec9190611772565b610661565b005b61010d60048036038101906101089190611772565b610acd565b005b61012960048036038101906101249190611686565b610f39565b6040516101369190611ac3565b60405180910390f35b600160205280600052604060002060009150905080600001549080600101805461016890611e84565b80601f016020809104026020016040519081016040528092919081815260200182805461019490611e84565b80156101e15780601f106101b6576101008083540402835291602001916101e1565b820191906000526020600020905b8154815290600101906020018083116101c457829003601f168201915b5050505050908060020180546101f690611e84565b80601f016020809104026020016040519081016040528092919081815260200182805461022290611e84565b801561026f5780601f106102445761010080835404028352916020019161026f565b820191906000526020600020905b81548152906001019060200180831161025257829003601f168201915b50505050509080600301805461028490611e84565b80601f01602080910402602001604051908101604052809291908181526020018280546102b090611e84565b80156102fd5780601f106102d2576101008083540402835291602001916102fd565b820191906000526020600020905b8154815290600101906020018083116102e057829003601f168201915b50505050509080600401805461031290611e84565b80601f016020809104026020016040519081016040528092919081815260200182805461033e90611e84565b801561038b5780601f106103605761010080835404028352916020019161038b565b820191906000526020600020905b81548152906001019060200180831161036e57829003601f168201915b5050505050908060050160009054906101000a900473ffffffffffffffffffffffffffffffffffffffff16908060060154905087565b60005481565b828285600083511161040e576040517f08c379a000000000000000000000000000000000000000000000000000000000815260040161040590611b25565b60405180910390fd5b6000825111610452576040517f08c379a000000000000000000000000000000000000000000000000000000000815260040161044990611b45565b60405180910390fd5b6000815111610496576040517f08c379a000000000000000000000000000000000000000000000000000000000815260040161048d90611ae5565b60405180910390fd5b600073ffffffffffffffffffffffffffffffffffffffff163373ffffffffffffffffffffffffffffffffffffffff1614156104d057600080fd5b6000808154809291906104e290611eb6565b91905055506040518060e0016040528060005481526020018881526020018781526020018681526020018581526020013373ffffffffffffffffffffffffffffffffffffffff1681526020016000815250600160008054815260200190815260200160002060008201518160000155602082015181600101908051906020019061056d9291906114fe565b50604082015181600201908051906020019061058a9291906114fe565b5060608201518160030190805190602001906105a79291906114fe565b5060808201518160040190805190602001906105c49291906114fe565b5060a08201518160050160006101000a81548173ffffffffffffffffffffffffffffffffffffffff021916908373ffffffffffffffffffffffffffffffffffffffff16021790555060c082015181600601559050507fa9f2d11860bb6b90d87fe0005e94c01661867e55b49618d5fe8c3e10e97c33fc6000548789336040516106509493929190611bd7565b60405180910390a150505050505050565b60008111801561067357506000548111155b6106b2576040517f08c379a00000000000000000000000000000000000000000000000000000000081526004016106a990611b05565b60405180910390fd5b6000600160008381526020019081526020016000206040518060e0016040529081600082015481526020016001820180546106ec90611e84565b80601f016020809104026020016040519081016040528092919081815260200182805461071890611e84565b80156107655780601f1061073a57610100808354040283529160200191610765565b820191906000526020600020905b81548152906001019060200180831161074857829003601f168201915b5050505050815260200160028201805461077e90611e84565b80601f01602080910402602001604051908101604052809291908181526020018280546107aa90611e84565b80156107f75780601f106107cc576101008083540402835291602001916107f7565b820191906000526020600020905b8154815290600101906020018083116107da57829003601f168201915b5050505050815260200160038201805461081090611e84565b80601f016020809104026020016040519081016040528092919081815260200182805461083c90611e84565b80156108895780601f1061085e57610100808354040283529160200191610889565b820191906000526020600020905b81548152906001019060200180831161086c57829003601f168201915b505050505081526020016004820180546108a290611e84565b80601f01602080910402602001604051908101604052809291908181526020018280546108ce90611e84565b801561091b5780601f106108f05761010080835404028352916020019161091b565b820191906000526020600020905b8154815290600101906020018083116108fe57829003601f168201915b505050505081526020016005820160009054906101000a900473ffffffffffffffffffffffffffffffffffffffff1673ffffffffffffffffffffffffffffffffffffffff1673ffffffffffffffffffffffffffffffffffffffff168152602001600682015481525050905060018160c001516109979190611d7c565b8160c001818152505080600160008481526020019081526020016000206000820151816000015560208201518160010190805190602001906109da9291906114fe565b5060408201518160020190805190602001906109f79291906114fe565b506060820151816003019080519060200190610a149291906114fe565b506080820151816004019080519060200190610a319291906114fe565b5060a08201518160050160006101000a81548173ffffffffffffffffffffffffffffffffffffffff021916908373ffffffffffffffffffffffffffffffffffffffff16021790555060c082015181600601559050507fdfb8e3561bacb6caea7f0960d425956921b9147a631b6e857325c39911ee7e3b828260a001518360c00151604051610ac193929190611ba0565b60405180910390a15050565b600081118015610adf57506000548111155b610b1e576040517f08c379a0000000000000000000000000000000000000000000000000000000008152600401610b1590611b05565b60405180910390fd5b6000600160008381526020019081526020016000206040518060e001604052908160008201548152602001600182018054610b5890611e84565b80601f0160208091040260200160405190810160405280929190818152602001828054610b8490611e84565b8015610bd15780601f10610ba657610100808354040283529160200191610bd1565b820191906000526020600020905b815481529060010190602001808311610bb457829003601f168201915b50505050508152602001600282018054610bea90611e84565b80601f0160208091040260200160405190810160405280929190818152602001828054610c1690611e84565b8015610c635780601f10610c3857610100808354040283529160200191610c63565b820191906000526020600020905b815481529060010190602001808311610c4657829003601f168201915b50505050508152602001600382018054610c7c90611e84565b80601f0160208091040260200160405190810160405280929190818152602001828054610ca890611e84565b8015610cf55780601f10610cca57610100808354040283529160200191610cf5565b820191906000526020600020905b815481529060010190602001808311610cd857829003601f168201915b50505050508152602001600482018054610d0e90611e84565b80601f0160208091040260200160405190810160405280929190818152602001828054610d3a90611e84565b8015610d875780601f10610d5c57610100808354040283529160200191610d87565b820191906000526020600020905b815481529060010190602001808311610d6a57829003601f168201915b505050505081526020016005820160009054906101000a900473ffffffffffffffffffffffffffffffffffffffff1673ffffffffffffffffffffffffffffffffffffffff1673ffffffffffffffffffffffffffffffffffffffff168152602001600682015481525050905060018160c00151610e039190611dd2565b8160c00181815250508060016000848152602001908152602001600020600082015181600001556020820151816001019080519060200190610e469291906114fe565b506040820151816002019080519060200190610e639291906114fe565b506060820151816003019080519060200190610e809291906114fe565b506080820151816004019080519060200190610e9d9291906114fe565b5060a08201518160050160006101000a81548173ffffffffffffffffffffffffffffffffffffffff021916908373ffffffffffffffffffffffffffffffffffffffff16021790555060c082015181600601559050507ff82778657f73816e36e0eec83627a423a37071dfb38bb1dab6a21eb62cc2ff65828260a001518360c00151604051610f2d93929190611ba0565b60405180910390a15050565b6060600073ffffffffffffffffffffffffffffffffffffffff168273ffffffffffffffffffffffffffffffffffffffff161415610fab576040517f08c379a0000000000000000000000000000000000000000000000000000000008152600401610fa290611b65565b60405180910390fd5b6000805467ffffffffffffffff811115610fee577f4e487b7100000000000000000000000000000000000000000000000000000000600052604160045260246000fd5b60405190808252806020026020018201604052801561102757816020015b611014611584565b81526020019060019003908161100c5790505b5090506000805b60005481116113d7578473ffffffffffffffffffffffffffffffffffffffff166001600083815260200190815260200160002060050160009054906101000a900473ffffffffffffffffffffffffffffffffffffffff1673ffffffffffffffffffffffffffffffffffffffff1614156113c457600160008281526020019081526020016000206040518060e0016040529081600082015481526020016001820180546110d990611e84565b80601f016020809104026020016040519081016040528092919081815260200182805461110590611e84565b80156111525780601f1061112757610100808354040283529160200191611152565b820191906000526020600020905b81548152906001019060200180831161113557829003601f168201915b5050505050815260200160028201805461116b90611e84565b80601f016020809104026020016040519081016040528092919081815260200182805461119790611e84565b80156111e45780601f106111b9576101008083540402835291602001916111e4565b820191906000526020600020905b8154815290600101906020018083116111c757829003601f168201915b505050505081526020016003820180546111fd90611e84565b80601f016020809104026020016040519081016040528092919081815260200182805461122990611e84565b80156112765780601f1061124b57610100808354040283529160200191611276565b820191906000526020600020905b81548152906001019060200180831161125957829003601f168201915b5050505050815260200160048201805461128f90611e84565b80601f01602080910402602001604051908101604052809291908181526020018280546112bb90611e84565b80156113085780601f106112dd57610100808354040283529160200191611308565b820191906000526020600020905b8154815290600101906020018083116112eb57829003601f168201915b505050505081526020016005820160009054906101000a900473ffffffffffffffffffffffffffffffffffffffff1673ffffffffffffffffffffffffffffffffffffffff1673ffffffffffffffffffffffffffffffffffffffff1681526020016006820154815250508383815181106113aa577f4e487b7100000000000000000000000000000000000000000000000000000000600052603260045260246000fd5b602002602001018190525081806113c090611eb6565b9250505b80806113cf90611eb6565b91505061102e565b508067ffffffffffffffff811115611418577f4e487b7100000000000000000000000000000000000000000000000000000000600052604160045260246000fd5b60405190808252806020026020018201604052801561145157816020015b61143e611584565b8152602001906001900390816114365790505b50925060005b8181116114f657828181518110611497577f4e487b7100000000000000000000000000000000000000000000000000000000600052603260045260246000fd5b60200260200101518482815181106114d8577f4e487b7100000000000000000000000000000000000000000000000000000000600052603260045260246000fd5b602002602001018190525080806114ee90611eb6565b915050611457565b505050919050565b82805461150a90611e84565b90600052602060002090601f01602090048101928261152c5760008555611573565b82601f1061154557805160ff1916838001178555611573565b82800160010185558215611573579182015b82811115611572578251825591602001919060010190611557565b5b50905061158091906115d7565b5090565b6040518060e001604052806000815260200160608152602001606081526020016060815260200160608152602001600073ffffffffffffffffffffffffffffffffffffffff168152602001600081525090565b5b808211156115f05760008160009055506001016115d8565b5090565b600061160761160284611ce6565b611cb5565b90508281526020810184848401111561161f57600080fd5b61162a848285611e42565b509392505050565b60008135905061164181611f9d565b92915050565b600082601f83011261165857600080fd5b81356116688482602086016115f4565b91505092915050565b60008135905061168081611fb4565b92915050565b60006020828403121561169857600080fd5b60006116a684828501611632565b91505092915050565b600080600080608085870312156116c557600080fd5b600085013567ffffffffffffffff8111156116df57600080fd5b6116eb87828801611647565b945050602085013567ffffffffffffffff81111561170857600080fd5b61171487828801611647565b935050604085013567ffffffffffffffff81111561173157600080fd5b61173d87828801611647565b925050606085013567ffffffffffffffff81111561175a57600080fd5b61176687828801611647565b91505092959194509250565b60006020828403121561178457600080fd5b600061179284828501611671565b91505092915050565b60006117a783836119f4565b905092915050565b6117b881611e06565b82525050565b6117c781611e06565b82525050565b60006117d882611d26565b6117e28185611d49565b9350836020820285016117f485611d16565b8060005b858110156118305784840389528151611811858261179b565b945061181c83611d3c565b925060208a019950506001810190506117f8565b50829750879550505050505092915050565b600061184d82611d31565b6118578185611d5a565b9350611867818560208601611e51565b61187081611f8c565b840191505092915050565b600061188682611d31565b6118908185611d6b565b93506118a0818560208601611e51565b6118a981611f8c565b840191505092915050565b60006118c1601783611d6b565b91507f49504653204e414d45204e4f542041564149414c424c450000000000000000006000830152602082019050919050565b6000611901600d83611d6b565b91507f4944204e4f542056414c494420000000000000000000000000000000000000006000830152602082019050919050565b6000611941601683611d6b565b91507f4950465320434944204e4f542041564149414c424c45000000000000000000006000830152602082019050919050565b6000611981601e83611d6b565b91507f49504653204449534352495054494f4e204e4f542041564149414c424c4500006000830152602082019050919050565b60006119c1600f83611d6b565b91507f494e56414c4944204144445245535300000000000000000000000000000000006000830152602082019050919050565b600060e083016000830151611a0c6000860182611aa5565b5060208301518482036020860152611a248282611842565b91505060408301518482036040860152611a3e8282611842565b91505060608301518482036060860152611a588282611842565b91505060808301518482036080860152611a728282611842565b91505060a0830151611a8760a08601826117af565b5060c0830151611a9a60c0860182611aa5565b508091505092915050565b611aae81611e38565b82525050565b611abd81611e38565b82525050565b60006020820190508181036000830152611add81846117cd565b905092915050565b60006020820190508181036000830152611afe816118b4565b9050919050565b60006020820190508181036000830152611b1e816118f4565b9050919050565b60006020820190508181036000830152611b3e81611934565b9050919050565b60006020820190508181036000830152611b5e81611974565b9050919050565b60006020820190508181036000830152611b7e816119b4565b9050919050565b6000602082019050611b9a6000830184611ab4565b92915050565b6000606082019050611bb56000830186611ab4565b611bc260208301856117be565b611bcf6040830184611ab4565b949350505050565b6000608082019050611bec6000830187611ab4565b8181036020830152611bfe818661187b565b90508181036040830152611c12818561187b565b9050611c2160608301846117be565b95945050505050565b600060e082019050611c3f600083018a611ab4565b8181036020830152611c51818961187b565b90508181036040830152611c65818861187b565b90508181036060830152611c79818761187b565b90508181036080830152611c8d818661187b565b9050611c9c60a08301856117be565b611ca960c0830184611ab4565b98975050505050505050565b6000604051905081810181811067ffffffffffffffff82111715611cdc57611cdb611f5d565b5b8060405250919050565b600067ffffffffffffffff821115611d0157611d00611f5d565b5b601f19601f8301169050602081019050919050565b6000819050602082019050919050565b600081519050919050565b600081519050919050565b6000602082019050919050565b600082825260208201905092915050565b600082825260208201905092915050565b600082825260208201905092915050565b6000611d8782611e38565b9150611d9283611e38565b9250827fffffffffffffffffffffffffffffffffffffffffffffffffffffffffffffffff03821115611dc757611dc6611eff565b5b828201905092915050565b6000611ddd82611e38565b9150611de883611e38565b925082821015611dfb57611dfa611eff565b5b828203905092915050565b6000611e1182611e18565b9050919050565b600073ffffffffffffffffffffffffffffffffffffffff82169050919050565b6000819050919050565b82818337600083830152505050565b60005b83811015611e6f578082015181840152602081019050611e54565b83811115611e7e576000848401525b50505050565b60006002820490506001821680611e9c57607f821691505b60208210811415611eb057611eaf611f2e565b5b50919050565b6000611ec182611e38565b91507fffffffffffffffffffffffffffffffffffffffffffffffffffffffffffffffff821415611ef457611ef3611eff565b5b600182019050919050565b7f4e487b7100000000000000000000000000000000000000000000000000000000600052601160045260246000fd5b7f4e487b7100000000000000000000000000000000000000000000000000000000600052602260045260246000fd5b7f4e487b7100000000000000000000000000000000000000000000000000000000600052604160045260246000fd5b6000601f19601f8301169050919050565b611fa681611e06565b8114611fb157600080fd5b50565b611fbd81611e38565b8114611fc857600080fd5b5056fea26469706673582212200bb012b0ed3b25865f2148f454b0320384ee58517269c7bd12ccc68d7145a93964736f6c63430008000033",
  "immutableReferences": {},
  "source": "// SPDX-License-Identifier: MIT\n\npragma solidity ^0.8.0;\n\ncontract SocialMediaDapp {\n    \n    uint public postCount;\n\n    constructor () {\n        postCount = 0;\n    }\n\n    struct Post {\n        uint id;\n        string name;\n        string cid;\n        string discription;\n        string date;\n        address author;\n        uint likes;\n    }\n\n    mapping(uint => Post) public posts;\n\n    event PostUploaded(\n        uint id,\n        string cid,\n        string name,\n        address author\n    );\n\n    event PostLiked(\n        uint id,\n        address author,\n        uint likes\n    );\n\n    event PostUnliked(\n        uint id,\n        address author,\n        uint likes\n    );\n\n    modifier uploaderReq(string memory _cid, string memory _discription, string memory _name) {\n        require(bytes(_cid).length > 0, \"IPFS CID NOT AVAIALBLE\");\n        require(bytes(_discription).length > 0, \"IPFS DISCRIPTION NOT AVAIALBLE\");\n        require(bytes(_name).length > 0, \"IPFS NAME NOT AVAIALBLE\");\n        require(msg.sender != address(0x0));\n        _;\n    }\n\n    function uploadPost(string memory _name, string memory _cid, string memory _discription, string memory _date) uploaderReq(_cid, _discription, _name) public {\n        \n        postCount ++;\n        posts[postCount] = Post(postCount, _name, _cid, _discription, _date, msg.sender, 0);\n        emit PostUploaded(postCount, _cid, _name, msg.sender);\n    }\n\n    function getAllImageByAddress(address _ownerOf) public view returns(Post[] memory FilterPost) {\n        require(_ownerOf != address(0x0), \"INVALID ADDRESS\");\n        Post[] memory tempPost = new Post[](postCount);\n        uint count = 0;\n        for(uint i=0; i<=postCount; i++)\n        {\n            if(posts[i].author == _ownerOf)\n            {\n                tempPost[count] = posts[i];\n                count++;\n            }\n        }\n        FilterPost = new Post[](count);\n        for(uint i=0; i<=count; i++)\n        {\n            FilterPost[i] = tempPost[i];\n        }\n\n        return FilterPost;\n    }\n\n    function likePost(uint _id) public {\n        require(_id > 0 && _id <= postCount, \"ID NOT VALID \");\n        Post memory _post = posts[_id];\n        _post.likes = _post.likes + 1;\n        posts[_id] = _post;\n        emit PostLiked(_id, _post.author, _post.likes);\n    }\n\n    function dislikePost(uint _id) public {\n        require(_id > 0 && _id <= postCount, \"ID NOT VALID \");\n        Post memory _post = posts[_id];\n        _post.likes = _post.likes - 1;\n        posts[_id] = _post;\n        emit PostUnliked(_id, _post.author, _post.likes);\n    }\n\n\n}\n\n",
  "sourcePath": "/Users/ateettiwari/Desktop/Blockchain/socialMediaDapp/backend/contracts/SocialMedia.sol",
  "compiler": {
    "name": "solc",
    "version": "0.8.0+commit.c7dfd78e.Emscripten.clang"
  },
  "schemaVersion": "3.4.8",
  "updatedAt": "2022-07-09T10:55:31.290Z",
  "networkType": "ethereum",
  "devdoc": {
    "kind": "dev",
    "methods": {},
    "version": 1
  },
  "userdoc": {
    "kind": "user",
    "methods": {},
    "version": 1
  }
}